:020000040800F2
:10000000D005002041190008DD180008DF1800089D
:10001000E1180008E3180008E518000800000000D7
:10002000000000000000000000000000E7180008C9
:10003000E918000800000000EB180008ED1800089F
:100040006119000865190008691900086D19000890
:100050007119000875190008791900087D19000840
:100060008119000885190008891900088D190008F0
:100070009119000895190008991900089D190008A0
:10008000A1190008A5190008A9190008AD19000850
:10009000B1190008B5190008B9190008BD19000800
:1000A000C1190008C5190008C9190008CD190008B0
:1000B000D1190008D5190008D9190008DD19000860
:1000C000E1190008E5190008E9190008ED19000810
:1000D000F1190008F5190008F9190008FD190008C0
:1000E000011A0008051A0008091A00080D1A00086C
:1000F000111A0008151A0008191A00081D1A00081C
:10010000211A0008251A0008291A00082D1A0008CB
:10011000311A0008351A0008391A0008F1180008C9
:100120003D1A0008411A0008451A0008491A00083B
:100130004D1A0008511A0008551A0008591A0008EB
:100140005D1A0008611A0008651A0008691A00089B
:100150006D1A0008711A0008751A0008791A00084B
:100160007D1A0008811A0008851A0008891A0008FB
:100170008D1A0008911A0008951A00080000000066
:10018000991A00089D1A0008A11A0008A51A00086B
:10019000A91A0008AD1A0008B11A0008B51A00081B
:1001A000B91A0008BD1A0008C11A0008C51A0008CB
:1001B000C91A00082DE9F84304469F4D2078C0076E
:1001C0003DD5A86800F00C00042807D0A86800F00E
:1001D0000C00082809D16868400206D52868800309
:1001E0002DD5606858BB012019E10020A87000F0EF
:1001F0005CF906462868800305D500F056F9801B97
:100200006528F7D308E16068A870606858B100F00D
:100210004CF906462868800311D400F046F9801B8B
:100220006528F7D3F8E000F040F906462868800317
:1002300005D500F03AF9801B6528F7D3ECE020786B
:10024000DFF8FC81800718D5A86810F00C0F07D0E4
:10025000A86800F00C00082824D16868400221D466
:100260002868800702D5E0680128BCD12868216988
:1002700020F0F80040EAC10028602078714F0007A4
:1002800037D56169704839B30121016000F00DF97B
:100290000646786880072CD400F007F9801B0328F5
:1002A000F7D3B9E0E06858B100F0C0F80646286816
:1002B0008007DBD400F0F9F8801B0328F7D3ABE00C
:1002C00000F0B5F8064628688007D6D500F0EDF8AE
:1002D000801B0328F7D39FE0016000F0E6F8064694
:1002E0007868800705D500F0E0F8801B0328F7D375
:1002F00092E0207840074BD500200090DFF83C9139
:10030000286C40F080502864286C00F080500090E9
:100310000098D9F8000040F48070C9F8000000F09F
:10032000C4F80646D9F80000C00505D400F0BDF8B1
:10033000801B0328F6D36FE00020387041F2893922
:1003400000F0B3F806463868800705D500F0ADF830
:10035000801B4845F7D35FE0A0683870A06858B1AB
:1003600000F0A3F806463868800711D400F09DF825
:10037000801B4845F7D34FE000F097F806463868F1
:10038000800705D500F091F8801B4845F7D343E07E
:10039000A069002842D0A96801F00C0108293FF4A7
:1003A00022AF02282DD100F03CF8064628688001D3
:1003B00005D500F07AF8801B0328F7D32CE0E0691C
:1003C000216A0843616A40EA8110A16A891EC90353
:1003D000090C40EA0140E16A40EA0160216B40EA11
:1003E000017068600120C8F8600000F05EF8064601
:1003F0002868800112D400F058F8801B0328F7D336
:100400000AE000F00EF806462868800106D500F0E4
:100410004CF8801B0328F7D3032000E00020BDE840
:10042000F2830020C8F8600000F03FB80120C8F84F
:10043000000000F03AB800000038024000700040B0
:100440000000474270380240800E474280B518488D
:10045000016841F400710160016841F4806101604C
:10046000016841F480710160032000F032F80F2030
:1004700000F004F800F090F8002002BD10B504462A
:1004800000F03DF94FF47A71B0FBF1F000F062F842
:10049000002221464FF0FF3000F028F8002010BD68
:1004A00004480168491C01607047024800687047B1
:1004B000003C0240CC0100200901002806D52F4A4B
:1004C00000F00F00801800F8041C70472C4A81547B
:1004D00070472C490A684FF6FF031A4000F00700E6
:1004E00042EA0020284A10430860704770B5254B47
:1004F0001B68C3F302230124C3F10705052D2EBF9A
:100500000F2504FA05F56D1E1E1D072E34BF0023AE
:10051000DB1E2940994004FA03F3BDE870405B1EDE
:100520001A401143C8E7012100F01F029140174A09
:10053000FFE7400942F820107047BFF34F8F114882
:10054000134A016801F4E06111430160BFF34F8F6A
:1005500000BFFDE710B5401EB0F1807F01D3012040
:1005600010BD0C4C60600F214FF0FF30FFF7A4FF6F
:100570000020A06007202060002010BD18ED00E0E2
:1005800000E400E00CED00E00000FA0500E100E00E
:100590000400FA0510E000E0704700002DE9F84380
:1005A0005F4E04463068884600F00F00404502D296
:1005B00000F07BF85ED12078584F800705D5B868E9
:1005C000A16820F0F0000843B8602078C00749D542
:1005D0006068012802D13968890305E0022818BF44
:1005E000032803D13968890103D443E039688907B6
:1005F00040D5B968890840EA8100B86041F289397C
:10060000FFF753FF0546606801280AD1B86800F07B
:100610000C00042826D0FFF748FF401B4845F5D3BF
:100620001EE002280AD1B86800F00C00082819D092
:10063000FFF73BFF401B4845F5D311E0032806D1E7
:10064000B868FFF732FF401B4845F9D308E0B868A7
:1006500010F00C0F06D0FFF728FF401B4845F6D3DB
:10066000032020E0306800F00F00804504D200F045
:100670001CF801D0012016E02078400705D5B868A5
:10068000E16820F4E0500843B8602078000706D500
:10069000B868216920F4604040EAC100B8600F20CA
:1006A000FFF7ECFE0020BDE8F28386F8008030689A
:1006B00000F00F00404570471B48416801F00C01F5
:1006C000042902D0082902D017E0184870470168B1
:1006D0000268520201F03F014CBF144A144AB2FBB7
:1006E000F1F102680068C0F30140C2F38812401CB7
:1006F00051434000B1FBF0F070470D48704780B5A2
:10070000FFF7DAFF074B0FF230021B680949C3F30A
:1007100003139A5CD0400860086802BD00380240AC
:10072000003C0240083802400438024000127A00BF
:100730000024F40020000020000000000102030457
:1007400001020304060708090FF26C2202608160AF
:100750000FF29902426070472DE9F041044686B0DD
:10076000206865680FF2382800281CBFA0680028A0
:100770000F4603D00FF275018D4203D0C8214046C9
:1007800000F0C4F9A268394620469047082803D0F3
:10079000D221404600F0BAF9A2680FF20C2600926E
:1007A000002709E07F1C062F03DBDC21404600F018
:1007B000ADF9A2684DF82720314620469047A06841
:1007C000A842EFD10098A0605DF8272000F077F8EC
:1007D0007F1EF9D506F10C01009D2046A847082888
:1007E000DAD06560A56006B0BDE8F08104207047EE
:1007F0002DE9F043044687B088466768A1680FF288
:10080000A0198F4204D04FF4C871484600F07EF919
:10081000A56841462046A84702280FF28C1602D14F
:1008200031462046A8470028F2D0082840D3A068C7
:1008300000900197029509E006F108012046B847AB
:10084000032802D131462046B847A768AF42F3D10A
:100850006946204600F036F8054602E000F02DF823
:100860006D1E002DFAD5009FA76017E06D1C4DF896
:1008700025003146A26820469047A068B842F5D1CD
:100880000098A060062D04DB4FF4CD71484600F0BF
:100890003DF900F012F86D1EFBD5009F06F10C012A
:1008A0002046B847082803D1A06800900025E0E75B
:1008B0006760A76007B0BDE8F0835DF82520311DB3
:1008C000204610472DE9F84F8B46DBF80070DBF827
:1008D00008800FF2D409B84504464FF0FF360FD018
:1008E0004946B847D4F808A0D04503D10026304681
:1008F000BDE8F28F49462046C047A068504502D166
:1009000000F046F8F2E7DBF80010884202D100F070
:100910003FF8ECE7CBF804A04946A7682046D0474B
:10092000012502E049462046904770B9A0686D1C39
:100930004BF82500A2684245F4D16E1E062DD6DB89
:100940004FF4FF7100F028F8D1E7062D03DB4FF4D8
:10095000027100F021F800F01BF828465BF8202017
:10096000974210D0401EF9D509F108012046B8473A
:10097000032802D149462046B847A76828465BF8B5
:100980002020974201D1461EB1E7401EF7D5EBE784
:1009900009F10801204640470FF2040000F0B6B804
:1009A0007165705F68736D00000000000100000059
:1009B000020000000300000059070008F1070008CA
:1009C0004049884204BF002000F0A2B8704710B52B
:1009D00094B0FFF73BFD002000903B4C206840F0B6
:1009E00080502060206800F0805000900098002027
:1009F00000903648016841F440410160006800F40D
:100A000040400090009801200690079002200C9032
:100A10004FF480000D9008200E904FF4B4700F90AA
:100A200002201090072011900620129006A8FFF7D0
:100A3000C1FB18B1012000F042F9FBE700F068F9B2
:100A400018B1012000F03BF9FBE70F2001900521D0
:100A500002200290002003904FF4A05004904FF425
:100A60008050059001A8FFF799FD18B1012000F012
:100A700026F9FBE700F0DEF8012000F0DBF80220A9
:100A800000F0D8F800200090206840F0200020609E
:100A900020680C4C00F02000009000980C4820606A
:100AA00041F26F7060600020A06041F64B50E06042
:100AB00000202061204600F065F9204600F070F922
:100AC00014B010BD240100204038024000700040E6
:100AD0000014004080B50320FFF7FBFC0022032137
:100AE0004FF0FF30FFF702FD002204213720FFF70F
:100AF000FDFCBDE802403720FFF715BD80B50020A2
:100B000000F0F5F8002080F3118801BDFFF715BD56
:100B10002DE9F041444901EB001427463F2585F3B8
:100B2000118800260FF2041806E00F4686F311889C
:100B3000BFF36F8F85F31188796851B9A06888B1C8
:100B40001FB96E214046FFF7E1FFA0687860A660FC
:100B50007968888950B948687860C87800F07F0063
:100B6000C870E3E786F31188BDE8F0818889401EEC
:100B7000888188890028D8D18868CA8912B18A8179
:100B80000F4605E04A687A60CA7802F07F02CA70B0
:100B900086F3118800220368DB689847CAE7F8B536
:100BA0001646042E04460D461F4601DB022F03D3D2
:100BB0004FF4967100F034F800206060A081E0816D
:100BC0002680A560A070E770F1BDF8B504460D461B
:100BD000E07800F07F07A089A168164631B128B9F6
:100BE00025B1022F02D22088042803DA4FF4C871FD
:100BF00000F016F83F2080F31188A581E681E078A7
:100C0000000609D4E07840F08000E070064800EB70
:100C10000710816861608460002080F31188F1BD55
:100C20000FF20800FFF772BFAC01002071665F741D
:100C3000696D650070B50446042C86B03DDADFF8B6
:100C4000C85055F82410019101210291039103210C
:100C50000491DFF8B81028B102280CD00BD3032878
:100C600013D01DE00090086840F04000086008685C
:100C700000F0400012E000200090086840F00800FA
:100C80000860086800F0080008E00020009008688C
:100C900040F480600860086800F48060009000986C
:100CA00005EB840601A9306900F09CF955F8241081
:100CB0003069012289B200F07CFA06B070BD0428C8
:100CC00006DA114B53F8201003EB800000220AE0F3
:100CD0007047042806DA0C4B53F8201003EB800011
:100CE000012200E07047006989B200F062BA04286E
:100CF00008DA054A52F8201002EB800089B2006938
:100D000000F05BBA7047000000000020303802405D
:100D1000F8B500F01FF801202060FFF7C6FB07467A
:100D20003068C00305D4FFF7C0FBC01BA842F7D34F
:100D30000CE001206060FFF7B8FB074630688003D5
:100D400006D4FFF7B2FBC01BA842F7D30320F2BDC5
:100D50000020F2BD0020009040F2E9350748084C21
:100D60000168054E41F080510160006800F080503C
:100D70000090009870470000047000404038024026
:100D800040000E4238B5040001D1012032BD00F010
:100D90001CF818B92870204600F001F80BE07047E5
:100DA0000068C16841F00101C160016841F00101C2
:100DB00001600020704702206870211D206800F04B
:100DC000B1F801206870002032BD04F13805687860
:100DD000704710B5044620680169890716D5C168B7
:100DE000890713D56FF00201016101212176806925
:100DF00010F0030F204602D000F091F804E000F05C
:100E00008DF8204600F08CF80020207620680169DB
:100E1000490716D5C168490713D56FF00401016170
:100E200002212176806910F4407F204602D000F034
:100E300076F804E000F072F8204600F071F8002027
:100E4000207620680169090716D5C168090713D5FE
:100E50006FF00801016104212176C06910F0030FD1
:100E6000204602D000F05BF804E000F057F820467E
:100E700000F056F80020207620680169C90616D5D2
:100E8000C168C90613D56FF01001016108212176F0
:100E9000C06910F4407F204602D000F040F804E022
:100EA00000F03CF8204600F03BF800202076206857
:100EB0000169C90708D5C168C90705D56FF00101E7
:100EC00001612046FFF77CFD20680169090608D50D
:100ED000C168090605D56FF080010161204600F068
:100EE0008CF920680169490608D5C168490605D50D
:100EF0006FF040010161204600F013F8206801699D
:100F000089060AD5C168890607D56FF020010161FD
:100F10002046BDE8104000F06FB910BD7047704723
:100F200070477047F0B50468234B244A244D254E82
:100F3000254F984218BFB0F1804F07D0B84218BF74
:100F4000B04203D0A84218BF90420FD1D1F804C0DC
:100F5000984224F0700418BFB0F1804F4CEA0404AA
:100F600017D0B8421CBFB042A84212D090421CBF5A
:100F7000164DA8420DD0164DA8421CBF154DA842D3
:100F800007D0154DA8421FBF144DA842144DA842CA
:100F900003D1CD6824F440742C43046098428C68DB
:100FA000C4620C68846212BF904209690163012126
:100FB0004161F0BD0000000000000140000401405C
:100FC000000C0040000800400004004000400140C8
:100FD000004401400048014000180040001C00404F
:100FE000002000402DE9F8470022764BDFF8D88139
:100FF000DFF8D8914FF00F0A012707FA02FC0F68BB
:101000000CEA0707674540F0CE804C68022C18BFF9
:10101000122C10D1D40800EB840E02F00704DEF885
:101020002050A4000AFA04F6B5430E6906FA04F447
:101030002C43CEF820404FEA420E032405680E7977
:1010400004FA0EF4E44306F00306254006FA0EF611
:10105000354305604D68012D18BF022D03D0112DB9
:1010600018BF122D11D18568CE68254006FA0EF6FC
:1010700035438560456825EA0C0C4D68C5F30015BD
:10108000954045EA0C0CC0F804C0D0F80CC004EA46
:101090000C0C8C6804FA0EFE4EEA0C0CC0F80CC066
:1010A000D1F804C05FEACC0C7DD5002400944FEA4F
:1010B000920CD9F8004044F48044C9F8004002F092
:1010C0000305D9F8004004F4804400944FEA850EEB
:1010D000009C58F82C400AFA0EF5AC433C4DA8424F
:1010E00008BF00252CD03B4DA84208BF012527D0C2
:1010F000394DA84208BF022522D0384DA84208BF6A
:1011000003251DD0364DA84208BF042518D0354D03
:10111000A84208BF052513D0334DA84208BF0625B5
:101120000ED0324DA84208BF072509D0304DA84245
:1011300008BF082504D02F4DA8420CBF09250A2559
:1011400005FA0EFE4EEA040448F82C406FEA070C3C
:101150001C680CEA040E4C68E40348BF47EA0E0E14
:10116000C3F800E05C680CEA040E4C68A40348BFB6
:1011700047EA0E0EC3F804E09C680CEA040E4C68C3
:10118000E40248BF47EA0E0EC3F808E0D3F80CE0CB
:101190000CEA0E0CD1F804E05FEA8E2E48BF47EA55
:1011A0000C0CC3F80CC0521C102AFFF425AFBDE88C
:1011B000F18702B909048161704742695140416178
:1011C00070470000003C01400838014044380240AC
:1011D000000002400004024000080240000C0240EF
:1011E000001002400014024000180240001C02409F
:1011F000002002400024024070477047F8B50D00FF
:10120000044616460FF2841703D164213846FFF7CF
:101210007DFC00F0AEF8206A86421ED2A97811B19A
:10122000E978491CE970401E2062616A884288BFE3
:1012300008466062E06818B9E56000F04AF80AE024
:101240002069A16940F82150A06908B96069A061CE
:10125000A069401EA061012008E01EB96E21384639
:10126000FFF754FC284600F095F80020002181F398
:101270001188F2BD70B504460D4600F07AF8266A72
:1012800026B9D2210FF20410FFF740FCA87810B164
:10129000E878401CE870701E2062616A884288BF4E
:1012A00008466062E068E56010B900F012F80CE0F2
:1012B000E169491CE161E1696269914204BF002171
:1012C000E1612169E26941F82200002080F3118880
:1012D00070BDA06A29492A4A415C2A4C02EB81036D
:1012E00009195D68005D2843586010684978084313
:1012F0001060704770B5054600F03BF8E8680FF2E3
:101300008C0618B900213046FFF700FCEC68286A0B
:10131000401C2862696981420BD32869EA6950F848
:101320002200E860E86900B9E961E869401EE86107
:101330001AE0491C00228842EA6004D04FF49B71F5
:101340003046FFF7E3FBA86A0C490D4A415C0E4D9D
:1013500002EB81035E68405D3040586004D1106844
:101360004919497808401060002080F31188204610
:1013700070BD3F2080F31188704700007016000890
:1013800088010020E81500082C16000871665F61CE
:101390006374710070B50446A07800B33F2080F3F9
:1013A0001188E1780020022905DBE178491EE1700F
:1013B00080F3118870BDA1784D1E80F311880A4E0C
:1013C000F06B854203D34FF4CD7100F009F814207F
:1013D000214600FB0560BDE8704000F00BB870BD11
:1013E0000FF20800FFF792BBA800002071665F644F
:1013F000796E000038B504460D46208AE18988429E
:1014000005D261688D4224BFA168A94204D2C821D7
:101410000FF22000FFF77AFB3F2080F3118820684D
:1014200028602560208A401C2082002080F31188DB
:1014300031BD000071665F6D656D000080B52249A9
:10144000002008602421214800F084F82021204851
:1014500000F080F8BDE8044084211E4800F07AB80E
:10146000F8B5FFF737FB1B4C184D10E054F820601F
:10147000002080F311883046FFF73CFF3268526845
:1014800007463946304690473846FFF783FF3F20EE
:1014900080F311882868A0B128680028E6D0286861
:1014A000B0FA80F0C0F12000C0B2401E05EB800110
:1014B000C0004968B1FA81F1C1F1200150FA81F010
:1014C000D4E7FFF71BFBE2E7E400002088010020DF
:1014D000AC01002024000020F8B50D00044616469B
:1014E0001F4603D0212D01D2069828B14FF4C871B0
:1014F0000FF22800FFF70AFB3A46314604F10C00D0
:1015000000F032F8A562204600F00AF80899226837
:1015100012682046BDE8F8401047000071760000D0
:1015200070B504460A4EA56A25B1212D02D256F89F
:10153000250020B164210FF22800FFF7E7FA3F20D1
:1015400080F3118846F82540002080F3118870BD93
:1015500024000020002918BF00F012B870470000D6
:1015600071665F6163740000002303604160826004
:10157000C3600361511C4161416981617047000092
:10158000002200F001B80000401810F0030308D05A
:10159000C91A1FD3DB0748BF00F8012D28BF20F868
:1015A000022D130030B414461546103928BF20E927
:1015B0003C00FAD8490728BF20E90C0048BF40F892
:1015C000042D890028BF20F8022D48BF00F8012D06
:1015D00030BC7047C91818BF00F8012DCB0728BFD1
:1015E00000F8012D7047000000010204081020409F
:1015F00080010204081020408001020408102040ED
:1016000080010204081020408001020408102040DC
:1016100080010204081020408001020408102040CC
:10162000800102040810204080000000FFFEFDFB46
:10163000F7EFDFBF7FFEFDFBF7EFDFBF7FFEFDFBB8
:10164000F7EFDFBF7FFEFDFBF7EFDFBF7FFEFDFBA8
:10165000F7EFDFBF7FFEFDFBF7EFDFBF7FFEFDFB98
:10166000F7EFDFBF7FFEFDFBF7EFDFBF7F0000007E
:101670000000000000000000000101010101010163
:101680000102020202020202020303030303030334
:101690000304040404040404040505050505050504
:1016A00005060606060606060607070707070707D4
:1016B0000700000010B5214C0FF21901204600F080
:1016C00043F8214604F12C00BDE810400023042219
:1016D000FFF765BA10B504460122012104F12C0080
:1016E000FFF773FA0FF20900A060082010BD000098
:1016F00080B50988012902D0042905D007E002201D
:10170000FFF7E7FA032002BD0FF205010FE011E039
:1017100080B50988012902D0042905D006E00220FD
:10172000FFF7CDFA032002BD054900E002E0816029
:10173000082002BD03498160002002BDE8000020AE
:10174000F1160008ED07000838B50D4604462C21B7
:10175000FFF700FF29462046FEF7F6FF0FF20400D0
:10176000206031BD59070008F1070008D9140008AE
:10177000FD110008751200080E480F4A016841F477
:10178000700101600D48016841F001010160002114
:10179000816001681140016009494160016821F4DC
:1017A000802101600021C1604FF0006005490860A0
:1017B0007047000088ED00E0FFFFF6FE00380240B1
:1017C0001030002408ED00E019E050F8041BCB07AE
:1017D00044BFA9F101035918121F0023042A41F83C
:1017E000043BF9D25FEA827C0B4604D54FF0000C33
:1017F000A1F800C09B1CD10744BF0021197050F80C
:10180000042B002AE1D1704710B584B0FFF716FE13
:10181000FFF7DDF8FFF74EFF0748084A0068002190
:101820000291019100910A230468A4680121A04754
:10183000BDE81F40FFF714BE5C19000860010020DE
:1018400010B450F8041B79B10268436812180830CC
:10185000DC0744BFA9F10104E31852F8044B43F834
:10186000044B091FF9D1ECE710BC704710B50749CC
:1018700079441831064C7C44163404E00A68081D8B
:10188000511888470146A142F8D110BD2C00000034
:101890004C0000004EF68851CEF20001086840F47A
:1018A00070000860BFF34F8FBFF36F8F4FF0007071
:1018B000E1EE100A7047000011FFFFFFAC010000CD
:1018C000240000200000000079FFFFFF240000003A
:1018D000FC01000000000020000000007047FEE74F
:1018E000FEE7FEE7FEE7704770477047FEF7D8BD9A
:1018F0000148FFF76EBA00002401002000F00BF849
:10190000002801D0FFF7B2FF0020C046C046FFF715
:101910007BFF00F002F80120704700F001B80000E2
:101920000746384600F002F8FBE7000080B5C046E5
:10193000C046024A11001820ABBEFBE72600020099
:1019400001488047014800477917000851190008ED
:10195000C046C046FFF79EFFFFF7D0FFE80000201B
:10196000FFF7FEBFFFF7FEBFFFF7FEBFFFF7FEBFAB
:10197000FFF7FEBFFFF7FEBFFFF7FEBFFFF7FEBF9B
:10198000FFF7FEBFFFF7FEBFFFF7FEBFFFF7FEBF8B
:10199000FFF7FEBFFFF7FEBFFFF7FEBFFFF7FEBF7B
:1019A000FFF7FEBFFFF7FEBFFFF7FEBFFFF7FEBF6B
:1019B000FFF7FEBFFFF7FEBFFFF7FEBFFFF7FEBF5B
:1019C000FFF7FEBFFFF7FEBFFFF7FEBFFFF7FEBF4B
:1019D000FFF7FEBFFFF7FEBFFFF7FEBFFFF7FEBF3B
:1019E000FFF7FEBFFFF7FEBFFFF7FEBFFFF7FEBF2B
:1019F000FFF7FEBFFFF7FEBFFFF7FEBFFFF7FEBF1B
:101A0000FFF7FEBFFFF7FEBFFFF7FEBFFFF7FEBF0A
:101A1000FFF7FEBFFFF7FEBFFFF7FEBFFFF7FEBFFA
:101A2000FFF7FEBFFFF7FEBFFFF7FEBFFFF7FEBFEA
:101A3000FFF7FEBFFFF7FEBFFFF7FEBFFFF7FEBFDA
:101A4000FFF7FEBFFFF7FEBFFFF7FEBFFFF7FEBFCA
:101A5000FFF7FEBFFFF7FEBFFFF7FEBFFFF7FEBFBA
:101A6000FFF7FEBFFFF7FEBFFFF7FEBFFFF7FEBFAA
:101A7000FFF7FEBFFFF7FEBFFFF7FEBFFFF7FEBF9A
:101A8000FFF7FEBFFFF7FEBFFFF7FEBFFFF7FEBF8A
:101A9000FFF7FEBFFFF7FEBFFFF7FEBFFFF7FEBF7A
:101AA000FFF7FEBFFFF7FEBFFFF7FEBFFFF7FEBF6A
:101AB000FFF7FEBFFFF7FEBFFFF7FEBFFFF7FEBF5A
:101AC000FFF7FEBFFFF7FEBFFFF7FEBF40000000BD
:101AD0001000000020000000080000000018024074
:101AE000000C0240000C0240002802400024F400D8
:040000050800195185
:00000001FF
